{
  "contractName": "TEST",
  "abi": [
    {
      "constant": true,
      "inputs": [],
      "name": "name",
      "outputs": [
        {
          "name": "",
          "type": "string"
        }
      ],
      "payable": false,
      "stateMutability": "view",
      "type": "function"
    },
    {
      "constant": true,
      "inputs": [],
      "name": "INITIAL_SUPPLY",
      "outputs": [
        {
          "name": "",
          "type": "uint256"
        }
      ],
      "payable": false,
      "stateMutability": "view",
      "type": "function"
    },
    {
      "constant": true,
      "inputs": [],
      "name": "decimal",
      "outputs": [
        {
          "name": "",
          "type": "uint256"
        }
      ],
      "payable": false,
      "stateMutability": "view",
      "type": "function"
    },
    {
      "constant": true,
      "inputs": [],
      "name": "symbol",
      "outputs": [
        {
          "name": "",
          "type": "string"
        }
      ],
      "payable": false,
      "stateMutability": "view",
      "type": "function"
    }
  ],
  "bytecode": "0x608060405234801561001057600080fd5b50610286806100206000396000f3fe60806040526004361061005c576000357c01000000000000000000000000000000000000000000000000000000009004806306fdde03146100615780632ff2e9dc146100f157806376809ce31461011c57806395d89b4114610147575b600080fd5b34801561006d57600080fd5b506100766101d7565b6040518080602001828103825283818151815260200191508051906020019080838360005b838110156100b657808201518184015260208101905061009b565b50505050905090810190601f1680156100e35780820380516001836020036101000a031916815260200191505b509250505060405180910390f35b3480156100fd57600080fd5b50610106610210565b6040518082815260200191505060405180910390f35b34801561012857600080fd5b5061013161021c565b6040518082815260200191505060405180910390f35b34801561015357600080fd5b5061015c610221565b6040518080602001828103825283818151815260200191508051906020019080838360005b8381101561019c578082015181840152602081019050610181565b50505050905090810190601f1680156101c95780820380516001836020036101000a031916815260200191505b509250505060405180910390f35b6040805190810160405280600a81526020017f5445535420746f6b656e0000000000000000000000000000000000000000000081525081565b6012600a0a6103e80281565b601281565b6040805190810160405280600481526020017f54455354000000000000000000000000000000000000000000000000000000008152508156fea165627a7a72305820f7f361c7c696251d78c266d79ffb8d60dd49ba99927aa81b3f467e85f61e18a70029",
  "source": "pragma solidity ^0.5.1;\r\n\r\ncontract TEST {\r\n    string public constant name = \"TEST token\";\r\n    string public constant symbol = \"TEST\";\r\n    uint256 public constant decimal = 18;\r\n    uint256 public constant INITIAL_SUPPLY = 1000 * 10**decimal;\r\n    string constant test = \"You can not see this\";\r\n}\r\n",
  "sourcePath": "C:\\Users\\gaon0\\erc20\\smartcontract\\contracts\\Test.sol",
  "compiler": {
    "name": "solc",
    "version": "0.5.1+commit.c8a2cb62.Emscripten.clang"
  },
  "schemaVersion": "3.4.3",
  "updatedAt": "2021-10-17T19:12:37.377Z",
  "networkType": "ethereum",
  "devdoc": {
    "methods": {}
  },
  "userdoc": {
    "methods": {}
  }
}